{
  "contractName": "Kickstarter",
  "abi": [
    {
      "inputs": [
        {
          "internalType": "uint256",
          "name": "numberOfDays",
          "type": "uint256"
        },
        {
          "internalType": "uint256",
          "name": "_goal",
          "type": "uint256"
        }
      ],
      "payable": false,
      "stateMutability": "nonpayable",
      "type": "constructor"
    },
    {
      "constant": true,
      "inputs": [],
      "name": "deadline",
      "outputs": [
        {
          "internalType": "uint256",
          "name": "",
          "type": "uint256"
        }
      ],
      "payable": false,
      "stateMutability": "view",
      "type": "function"
    },
    {
      "constant": true,
      "inputs": [],
      "name": "goal",
      "outputs": [
        {
          "internalType": "uint256",
          "name": "",
          "type": "uint256"
        }
      ],
      "payable": false,
      "stateMutability": "view",
      "type": "function"
    },
    {
      "constant": true,
      "inputs": [
        {
          "internalType": "address",
          "name": "",
          "type": "address"
        }
      ],
      "name": "pledgeOf",
      "outputs": [
        {
          "internalType": "uint256",
          "name": "",
          "type": "uint256"
        }
      ],
      "payable": false,
      "stateMutability": "view",
      "type": "function"
    },
    {
      "constant": false,
      "inputs": [
        {
          "internalType": "uint256",
          "name": "amount",
          "type": "uint256"
        }
      ],
      "name": "pledge",
      "outputs": [],
      "payable": true,
      "stateMutability": "payable",
      "type": "function"
    },
    {
      "constant": false,
      "inputs": [],
      "name": "claimFunds",
      "outputs": [],
      "payable": false,
      "stateMutability": "nonpayable",
      "type": "function"
    },
    {
      "constant": true,
      "inputs": [],
      "name": "getCurrentRaisedBalance",
      "outputs": [
        {
          "internalType": "uint256",
          "name": "",
          "type": "uint256"
        }
      ],
      "payable": false,
      "stateMutability": "view",
      "type": "function"
    },
    {
      "constant": true,
      "inputs": [],
      "name": "isOwner",
      "outputs": [
        {
          "internalType": "bool",
          "name": "",
          "type": "bool"
        }
      ],
      "payable": false,
      "stateMutability": "view",
      "type": "function"
    },
    {
      "constant": true,
      "inputs": [],
      "name": "canClaim",
      "outputs": [
        {
          "internalType": "bool",
          "name": "",
          "type": "bool"
        }
      ],
      "payable": false,
      "stateMutability": "view",
      "type": "function"
    },
    {
      "constant": false,
      "inputs": [],
      "name": "getRefund",
      "outputs": [],
      "payable": false,
      "stateMutability": "nonpayable",
      "type": "function"
    }
  ],
  "bytecode": "0x608060405234801561001057600080fd5b506040516103963803806103968339818101604052604081101561003357600080fd5b508051602090910151600080546001600160a01b031916331790554262015180909202919091016001556002556103278061006f6000396000f3fe6080604052600436106100865760003560e01c80638f32d59b116100595780638f32d59b1461010f578063a84e953814610124578063ac30777314610139578063b2d5ae441461014e578063c5055f2f1461016357610086565b806329dcb0cf1461008b57806340193883146100b25780636dc7a627146100c75780637326c9c0146100f0575b600080fd5b34801561009757600080fd5b506100a0610196565b60408051918252519081900360200190f35b3480156100be57600080fd5b506100a061019c565b3480156100d357600080fd5b506100dc6101a2565b604080519115158252519081900360200190f35b61010d6004803603602081101561010657600080fd5b50356101d4565b005b34801561011b57600080fd5b506100dc610206565b34801561013057600080fd5b506100a0610217565b34801561014557600080fd5b5061010d61021c565b34801561015a57600080fd5b5061010d610282565b34801561016f57600080fd5b506100a06004803603602081101561018657600080fd5b50356001600160a01b03166102e0565b60015481565b60025481565b600080546001600160a01b031633146101ba57600080fd5b60015442101580156101cf5750600254303110155b905090565b60015442106101e257600080fd5b8034146101ee57600080fd5b33600090815260036020526040902080549091019055565b6000546001600160a01b0316331490565b303190565b6002543031101561022c57600080fd5b60015442101561023b57600080fd5b6000546001600160a01b0316331461025257600080fd5b6040513390303180156108fc02916000818181858888f1935050505015801561027f573d6000803e3d6000fd5b50565b60025430311061029157600080fd5b6001544210156102a057600080fd5b3360008181526003602052604080822054905190929183156108fc02918491818181858888f193505050501580156102dc573d6000803e3d6000fd5b5050565b6003602052600090815260409020548156fea265627a7a723158204228bd6169452800eaea137c8d988f45bc081a50421c7f955cf9364a7d575e2564736f6c634300050c0032",
  "source": "pragma solidity >=0.4.22 <0.6.0;\n\ncontract Kickstarter {\n    address owner;\n    uint256 public deadline;\n    uint256 public goal;\n\n    mapping(address => uint256) public pledgeOf;\n\n    constructor (uint256 numberOfDays, uint256 _goal) public {\n        owner = msg.sender;\n        deadline = now + (numberOfDays * 1 days);\n        goal = _goal;\n    }\n\n    function pledge(uint256 amount) public payable {\n        require(now < deadline);\n        require(msg.value == amount);\n        pledgeOf[msg.sender] += amount;\n    }\n\n    function claimFunds() public {\n        require(address(this).balance >= goal);\n        require(now >= deadline);\n        require(msg.sender == owner);\n\n        msg.sender.transfer(address(this).balance);\n    }\n\n    function getCurrentRaisedBalance() public view returns(uint256) {\n        return address(this).balance;\n    }\n\n    function isOwner() public view returns(bool) {\n        return msg.sender == owner;\n    }\n\n    function canClaim() public view returns(bool) {\n        require(msg.sender == owner);\n        return now >= deadline && address(this).balance >= goal;\n    }\n\n    function getRefund() public {\n        require(address(this).balance < goal);\n        require(now >= deadline);\n\n        uint256 amount = pledgeOf[msg.sender];\n        msg.sender.transfer(amount);\n    }\n\n}",
  "sourcePath": "/home/ignasd/Documents/contracts/kickstarter/contracts/Kickstarter.sol",
  "compiler": {
    "name": "solc",
    "version": "0.5.12+commit.7709ece9.Emscripten.clang"
  },
  "schemaVersion": "3.0.20",
  "updatedAt": "2020-01-12T00:15:49.736Z",
  "networkType": "ethereum",
  "devdoc": {
    "methods": {}
  },
  "userdoc": {
    "methods": {}
  }
}